:100000000C9464000C948C000C948C000C948C0068
:100010000C948C000C948C000C948C000C948C0030
:100020000C948C000C948C000C94E80A0C94340A08
:100030000C94BC0B0C948C000C948C000C948C00D5
:100040000C94CE0C0C948C000C94C20F0C94F40FF6
:100050000C948C000C948C000C948C000C948C00F0
:100060000C948C000C948C0000000008000201002D
:100070000003040700000000000000000102040863
:100080001020408001020408102001020408102002
:10009000040404040404040402020202020203032E
:1000A00003030303000000002300260029000000D2
:1000B0000000250028002B0000000000240027007D
:1000C0002A0069012410830111241FBECFEFD8E05C
:1000D000DEBFCDBF11E0A0E0B1E0EAE0F2E202C095
:1000E00005900D92A633B107D9F725E0A6E3B1E05C
:1000F00001C01D92A23FB207E1F710E0C6ECD0E0CC
:1001000004C02297FE010E94CF10C23CD107C9F75C
:100110000E9490100C94F8100C940000DC01ED91FA
:10012000FC910190F081E02D0994EF92FF920F93E2
:100130001F93CF93DF93C82F7B018A016CE770E098
:1001400085E595E00E948E006C2F772767FD7095FE
:1001500085E595E00E948E00E7010E0D1F1D80E2EF
:10016000E82EC017D107A9F0F99084E88F0D8330ED
:1001700038F46EE770E085E595E00E948E00FE247D
:100180006F2D772767FD709585E595E00E948E00BD
:10019000E8CF6DE770E085E595E00E948E00A895B8
:1001A000DF91CF911F910F91FF90EF90089580E024
:1001B00090E00E94E21090E090930204809301048A
:1001C0001092D7031092D6031092AD031092AC0395
:1001D0001092000461E087E00E941E0E60E082E160
:1001E0000E941E0E60E083E10E941E0E49E063E85B
:1001F00076E080E090E00C9497098091D60390918E
:10020000D7030197E8EDF3E020E031E0AF01485D6E
:1002100053404817590720F44191240F311DF6CF60
:100220003327FC01E852FC4F408150E081E0241765
:10023000350709F080E0089510926F0210926E0267
:1002400060E087E00E941E0E61E082E10E941E0EC7
:1002500060E083E10E941E0E48E063E876E080E003
:1002600090E00C949709CF93DF93C4E1D0E083E052
:1002700094E00E9488091816190634F483E094E08B
:10028000DF91CF910C94880961E070E080E090E00C
:100290000E94470D219759F780E090E0DF91CF91C0
:1002A0000895CF93C82F64E170E080E090E00E9451
:1002B000470D80E190E00E94EF0964E170E080E08A
:1002C00090E00E94470D80E38C0F90E0CF910C945A
:1002D000EF09109206041092050488EE93E0A0E066
:1002E000B0E08093070490930804A0930904B093AE
:1002F0000A048AE191E090930404809303048CE95A
:1003000093E00C94430C8AE191E090930404809371
:1003100003040C942F0CCF93DF93D82FC62F6CE7D8
:1003200070E085E595E00E948E006D2F772767FDD0
:10033000709585E595E00E948E006C2F85E595E02F
:100340000E94FB0E6DE770E085E595E00E948E004F
:10035000A895DF91CF91089588E10FB6F894809326
:100360006000109260000FBE61E08DE00E94E50D1C
:1003700060E08DE00E941E0E61E083E00E94E50DCA
:1003800061E082E00E94E50D61E085E00E94E50DFC
:1003900061E084E00E94E50D62E086E00E94E50DE8
:1003A00081E080933B0180933A0161E087E00E9405
:1003B000E50D61E082E10E94E50D61E083E10E94CC
:1003C000E50D8FEF9FEF90930204809301040E944C
:1003D000D70026E040E051EE60E070E085E595E072
:1003E0000E94600F10926B0210926A0210923D01FF
:1003F00010923C0168E882E70E948B0129E288E1C3
:1004000090E00FB6F894A895809360000FBE2093FB
:1004100060000895BF92CF92DF92EF92FF920F9308
:100420001F93CF93DF930E94240D6B017C0184EF17
:10043000C80E81E0D81EE11CF11CCEEAD3E000E03A
:1004400010E08091AC039091AD039E012E5A334091
:1004500028173907E8F4888190E00E94EF09B990E5
:1004600083E094E00E948809892B51F40E94240DB6
:100470006C157D058E059F0598F30B0D111DE1CFC1
:1004800083E094E00E945E098A3A910579F7CBCF28
:10049000C80191600E94EF090E94240D6B017C014C
:1004A00080E6C80E8AEED81EE11CF11C83E094E0C1
:1004B0000E948809892B61F083E094E00E945E0924
:1004C0000097D1F08A3A910509F4ADCF64E008C0F5
:1004D0000E94240D6C157D058E059F0538F363E0A1
:1004E00089E6DF91CF911F910F91FF90EF90DF9000
:1004F000CF90BF900C948B01DF91CF911F910F9102
:10050000FF90EF90DF90CF90BF900895CF92DF9251
:10051000EF92FF92CF93DF9383E094E00E945E0915
:10052000C82F282F392F30FFC0C0287F3327409194
:100530000104509102042417350709F0B6C061E0A8
:100540008DE00E941E0EC093D80381E090E090934E
:10055000D7038093D6030E94240D6B017C0180EAAF
:10056000C80E8FE0D81EE11CF11C83E094E00E94CD
:100570008809892B09F441C0C091D603D091D703D3
:1005800083E094E00E945E09C852DC4F888380912A
:10059000D6039091D70301969093D7038093D60307
:1005A000889791F41092D7031092D6038FEF91E0C1
:1005B0000E94EF0963E085E6DF91CF91FF90EF9015
:1005C000DF90CF900C948B010E94240D6B017C0175
:1005D0000E94FD00811107C080EAC80E8FE0D81E7E
:1005E000E11CF11C0AC00E94240D6B017C0180ED0E
:1005F000C80E87E0D81EE11CF11C0E94240D6C156A
:100600007D058E059F0508F4B0CF0E94FD00811185
:1006100015C08FEF91E00E94EF098FEF91E00E94EB
:10062000EF098FEF91E00E94EF098FEF91E00E94B8
:10063000EF0960E089E60E948B012DC08091D8030C
:1006400087708230C9F4809100048F3F19F08F5F6A
:10065000809300048091AC039091AD03892B39F015
:100660000E940A021092AD031092AC0314C080E005
:1006700091E00E94EF090FC080E091E00E94EF0935
:100680004091D6035091D7034150510968ED73E072
:1006900082E60E94950060E08DE0DF91CF91FF90AF
:1006A000EF90DF90CF900C941E0EDF91CF91FF90D2
:1006B000EF90DF90CF900895CF92DF92EF92FF926C
:1006C0000E94180D6B017C0180E1C80E87E2D81EE4
:1006D000E11CF11C0E94180D6C157D058E059F050F
:1006E00068F585E090E00E94EF0964E170E080E049
:1006F00090E00E94470D0E943301892B39F46CE38E
:1007000070E080E090E00E94470DE4CF83E094E049
:100710000E945E09853099F38031E1F60E94330131
:10072000892B11F465E60BC083E094E00E945E091A
:10073000803311F066E603C081E005C064E685E61B
:100740000E948B0180E0FF90EF90DF90CF900895A2
:10075000CF92DF92EF92FF920F931F93CF93DF938D
:10076000CDB7DEB762970FB6F894DEBF0FBECDBF30
:10077000D82E8BE0E0E0F1E08E010F5F1F4FD80133
:1007800001900D928A95E1F787E0EBE0F1E0DE0160
:100790001C9601900D928A95E1F78CE993E00E94F6
:1007A000470C64E170E080E090E00E94470D80E13A
:1007B00090E00E94EF0964E170E080E090E00E9428
:1007C000470D81E090E00E94EF0964E170E080E075
:1007D00090E00E94470D7801F80101900020E9F7B0
:1007E0003197E01BF10B9701201B310B2E173F07B0
:1007F00098F4F701C1907F016C2D8CE993E00E9481
:100800004B0C8C2D90E00E94EF0964E170E080E0D9
:1008100090E00E94470DE0CF6D2D8CE993E00E949F
:100820004B0C8D2D90E00E94EF0964E170E080E0B8
:1008300090E00E94470D8E01045F1F4F7801F70181
:1008400001900020E9F73197EE19FF09C8018E19D0
:100850009F098E179F0798F4F801D1908F016D2D95
:100860008CE993E00E944B0C8D2D90E00E94EF09E3
:1008700064E170E080E090E00E94470DE0CF80E10D
:1008800090E00E94EF0964E170E080E090E00E9457
:10089000470D63E08CE993E00E944B0C83E090E00D
:1008A0000E94EF0964E170E080E090E00E94470D53
:1008B0008CE993E00E94CB0C90E00E94EF0964E188
:1008C00070E080E090E00E94470D8CE993E00E9488
:1008D000C80C90E00E94EF0964E670E080E090E0D0
:1008E0000E94470D0E943301892B11F46FE62AC044
:1008F00083E094E00E945E09082F0E943301892B57
:1009000011F460E71FC083E094E00E945E09182F95
:10091000003151F480ED810F823030F484E090E0BA
:100920000E94EF0981E012C00E943301892B49F334
:1009300083E094E00E945E09103119F48053823004
:1009400068F36EE685E60E948B0180E062960FB642
:10095000F894DEBF0FBECDBFDF91CF911F910F91F5
:10096000FF90EF90DF90CF900895CF92DF92EF92BB
:10097000FF92CF93DF930E94180D6B017C0180E101
:10098000C80E87E2D81EE11CF11C10926F02109273
:100990006E028CE993E00E94470CD0E00E94180D93
:1009A0006C157D058E059F0508F0C2C00E943301BD
:1009B000892B39F464E170E080E090E00E94470DFB
:1009C000EDCF83E094E00E945E09C82F853019F4D2
:1009D00080E090E042C0833009F048C063E089E6DF
:1009E0000E948B0163E08CE993E00E944B0C0E9413
:1009F0003301892B11F469E79CC083E094E00E94E5
:100A00005E09C82F682F89E60E948B016C2F8CE944
:100A100093E00E944B0C0E943301892B11F46AE78A
:100A200088C083E094E00E945E09C82F682F89E6A1
:100A30000E948B016C2F8CE993E00E944B0C64E1C7
:100A400070E080E090E00E94470D8CE993E00E9406
:100A5000C00C882329F081E090E00E9451019ECFD4
:100A600085E190E00E94EF096BE763C08430E9F410
:100A7000E0916E02F0916F02E059FD4F108260919B
:100A80007002603351F480917102803331F410921E
:100A90006F0210926E0281E050C06E5A85E60E948D
:100AA0008B01609171026E5A44C08031E1F40E9462
:100AB0003301892B09F49FCF83E094E00E945E0903
:100AC000813051F410926F0210926E028CE993E023
:100AD0000E94470CD1E062CF833009F05FCFDD2365
:100AE00009F45CCF7BCF8FEF8C0F823008F456CFA8
:100AF000C63009F453CF6C2F89E60E948B016C2F0E
:100B00008CE993E00E944B0C20916E0230916F02B1
:100B10002C3281E0380708F041CFF901E059FD4F50
:100B2000C0832F5F3F4F30936F0220936E0236CF0A
:100B300068E785E60E948B0180E0DF91CF91FF900E
:100B4000EF90DF90CF900895CF92DF92EF92FF92D7
:100B50001F93CF93DF930E94180D6B017C0180E6F9
:100B6000C80E8AEED81EE11CF11C10926F02109282
:100B70006E028CE993E00E94470CC1E0D0E00E9435
:100B8000180D6C157D058E059F0508F08BC00E9421
:100B90003301892BA1F383E094E00E945E09182FB2
:100BA000853029F480E090E00E9451014DC08230F0
:100BB00049F410926F0210926E028CE993E00E9449
:100BC000470CDDCF873119F0833009F04AC0612F1F
:100BD0008CE993E00E944B0C0E943301892B11F4A5
:100BE0006DE861C083E094E00E945E09682F8CE9A3
:100BF00093E00E944B0C0E943301892B11F46EE8A4
:100C000052C083E094E00E945E09682F8CE993E073
:100C10000E944B0C8CE993E00E94C00C8823D9F011
:100C2000CE010E94510181E0CD2B09F080E0C82F58
:100C3000D0E040916E0250916F024150510960E73F
:100C400072E084E60E94950064E170E080E090E04C
:100C50000E94470D94CF85E190E00E94EF096FE874
:100C600022C0843029F1803109F489CF813009F420
:100C700086CF682F8CE993E00E944B0C20916E0286
:100C800030916F022C3281E0380708F078CFF901FB
:100C9000E059FD4F10832F5F3F4F30936F02209339
:100CA0006E026DCF6CE885E60E948B0180E001C08A
:100CB00081E0DF91CF911F91FF90EF90DF90CF9077
:100CC00008950E945C038823B9F082E50E94A8037E
:100CD000882391F064E670E080E090E00E94470D88
:100CE0000E94B504882341F064E670E080E090E063
:100CF0000E94470D0C94A40580E00895CF9385E0F1
:100D000090E00E94EF0964E170E080E090E00E94D2
:100D1000470D0E943301892B11F467E914C083E069
:100D200094E00E945E09C82F0E943301892B11F4C0
:100D300068E909C083E094E00E945E09C03111F4C3
:100D4000803331F066E985E60E948B0180E001C0C6
:100D500081E0CF9108950E945C038823B9F083E578
:100D60000E94A803882391F064E670E080E090E0A0
:100D70000E94470D0E94B504882341F064E670E0AC
:100D800080E090E00E94470D0C947E0680E008957C
:100D90000F931F93CF93DF938CE993E00E94470C4E
:100DA00080E190E00E94EF0964E170E080E090E073
:100DB0000E94470D82E090E00E94EF0964E170E03C
:100DC00080E090E00E94470DC0E7D2E080916E0283
:100DD00090916F029E01205732402817390790F4F6
:100DE0008E0169918CE993E00E944B0CF80180819F
:100DF00090E00E94EF0964E170E080E090E00E94E2
:100E0000470DE4CF80E190E00E94EF0964E170E0DB
:100E100080E090E00E94470D90916D0280916C02FD
:100E2000981740F467E18CE993E00E944B0C87E14E
:100E300090E007C063E08CE993E00E944B0C83E0F4
:100E400090E00E94EF0964E170E080E090E00E9491
:100E5000470D8CE993E00E94CB0C90E00E94EF09D3
:100E600064E170E080E090E00E94470D8CE993E03F
:100E70000E94C80C90E00E94EF0964E670E080E0F8
:100E800090E00E94470D0E943301892B11F461EA22
:100E900015C083E094E00E945E09C82F0E943301D0
:100EA000892B11F462EA0AC083E094E00E945E0993
:100EB000C03119F48053823030F060EA85E60E9438
:100EC0008B0180E011C090916D0280916C029813AB
:100ED0000AC084E090E00E94EF0964E170E080E0E5
:100EE00090E00E94470D81E0DF91CF911F910F911B
:100EF00008950F931F93CF93DF9380913C019091BE
:100F00003D01009709F41EC120913E01243609F4E9
:100F1000B0C038F4223669F108F057C0213659F0D4
:100F20000CC1233709F484C0283709F456C02C3685
:100F300009F003C1E7C0029710F461E01DC06091A1
:100F40003F018FEF860F8E3F90F41092AD03109209
:100F5000AC03862F90E0909302048093010480E01C
:100F600090E00E94EA106091010481E6E8C062E32B
:100F7000E5C0029718F463E385E6B9C08091AC033D
:100F80009091AD03892B21F061E089E60E948B01ED
:100F900080913C0190913D018932910510F064E00F
:100FA000EBCF9C01215031093093AD032093AC036A
:100FB000EFE3F1E0AEEAB3E0825C9E4FE817F90799
:100FC00009F4BFC021912D93F9CF6091000483E60D
:100FD0000E948B0110920004B4C00E942F0C64EF99
:100FE00071E080E090E00E94470D0E941C0164EFD8
:100FF00071E080E090E00E94470D0E946106882326
:1010000011F061E001C060E088E70E948B010E945E
:101010002F0C64EF71E080E090E00E94470D0E9489
:10102000D70064EF71E080E090E00E94470D89C036
:10103000029708F482CF80913F0180936C02109256
:101040006D020E942F0C64EF71E080E090E00E943E
:10105000470D0E941C0164EF71E080E090E00E9467
:10106000470D0E94AB0660E0882309F449C086E67C
:1010700066C0029708F461CF80916E0290916F0272
:10108000892B21F062E089E60E948B0180913C016E
:1010900090913D018D3221E0920710F065E06CCF18
:1010A0009C012150310930936F0220936E02EFE3CF
:1010B000F1E0A0E7B2E0825C9E4FE817F90719F073
:1010C00021912D93FACF80916D028F5F80936D02F5
:1010D0000E94C806882399F060916D0280916C028D
:1010E000681758F410926F0210926E0286E6DF9134
:1010F000CF911F910F910C948B0161E001C060E0D2
:1011000083E783CF029708F418CF02E111E0C0E033
:10111000D0E060913F0170E00C2E02C0759567959C
:101120000A94E2F76170F80181918F010E941E0E0E
:101130002196C430D10569F704C060E085E60E94BD
:101140008B01A895DF91CF911F910F9108950F9377
:101150001F93CF9383E094E00E948809892B31F09C
:10116000809101049091020497FFA5C085E595E068
:101170000E947D0E892B09F45EC085E595E00E94F2
:10118000960E40916A0250916B0241305105A9F0D0
:101190004230510559F1452B09F04DC08C3791056E
:1011A00009F049C081E090E090936B0280936A025D
:1011B00010923D0110923C013EC08D37910519F40B
:1011C0000E94790734C08E37910539F482E090E0AF
:1011D00090936B0280936A022EC020913C01309163
:1011E0003D01F901E25CFE4F808310C021E030E058
:1011F00030936B0220936A0220913C0130913D01B3
:10120000F901E25CFE4F90E298279083C9010196B4
:1012100090933D0180933C018C32914061F462E0F7
:1012200085E60E948B0110923D0110923C011092C4
:101230006B0210926A0286E00E94540EC82F8091C1
:101240003A01C81751F00E94180D6093360170934F
:10125000370180933801909339010E94180D009155
:101260003601109137012091380130913901601B0E
:10127000710B820B930B653671058105910580F02A
:1012800080913B01C81761F081E0C11101C080E08D
:1012900080933B01811104C061E080E70E948B01D3
:1012A00081E0C11101C080E080933A01A895CF91FF
:1012B0001F910F9108950E94860258CF90913F058B
:1012C00080913E05981781F08F5F803508F080E0AF
:1012D000E82FF0E0EE0FFF1FE256FB4F2081318137
:1012E00080933E05C90108958FEF9FEF0895809187
:1012F0003F05E0913E058E1741F0F0E0EE0FFF1F35
:10130000E256FB4F8081918108958FEF9FEF089502
:1013100050913F0540913E05852F90E0242F30E00D
:10132000541710F4805B9F4F821B930B08956D3A06
:101330002BE172078105910530F410926F00109235
:10134000800021E812C053E09695879577956795C0
:101350005A95D1F76D3A2BE1720781059105F0F5A9
:1013600010926F001092800022E82093810028EFF5
:10137000240F223098F54093490570934B056093F4
:101380004A05A5E2B0E09B01AC010E94C21032E028
:1013900096958795779567953A95D1F7709341051E
:1013A0006093400562E088E00E94E50D61E089E01D
:1013B0000E941E0E61E089E00E94E50D1092480532
:1013C00010923F0510923E0510929D0410929804D1
:1013D0001092970480E286BB80936F00089520915D
:1013E00098042F5F243408F020E0309197043217DE
:1013F000E1F33FB7F89440919D04442359F0E22F64
:10140000F0E0EE0FFF1FE15FFB4F9183808320939D
:10141000980421C021E020939D0490939C04809324
:101420009B0410929A041092990482E086BB8091EA
:101430006F00826080936F00809180008F7380685E
:1014400080938000809184009091850040969093D5
:101450008900809388003FBF0895862F90E00E9406
:10146000EF0981E090E008951F920F920FB60F925E
:1014700011242F933F934F935F936F937F938F9399
:101480009F93AF93BF93CF93DF93EF93FF93C0915D
:101490009D0420919B0430919C0480918800909140
:1014A0008900D09149056D2F70E0E0914A05F091D7
:1014B0004B05A0919904B0919A044C2F50E0641709
:1014C00075072CF18E0F9F1FA90141705527369586
:1014D0002795CF5F4A175B0781F360918000411524
:1014E000510511F0606C02C06F73606860938000FA
:1014F000909389008093880050939A0440939904B4
:1015000030939C0420939B04C0939D0447C06F5F5D
:101510007F4F4617570739F4DE5FD0939D04209123
:101520008000206C2FC020919804E09197042E1326
:101530000DC010929D04809180008F738093800075
:1015400080916F008D7F80936F0028C021E02093F1
:101550009D04EF5FE43408F0E0E0E0939704F0E0EE
:10156000EE0FFF1FE15FFB4F2081318130939C0420
:1015700020939B0410929A04109299042091800069
:101580002F7320682093800020914A0530914B05ED
:10159000280F391F3093890020938800FF91EF9125
:1015A000DF91CF91BF91AF919F918F917F916F917B
:1015B0005F914F913F912F910F900FBE0F901F9011
:1015C000189580919D048111FCCF08950C94E10A37
:1015D0001F920F920FB60F9211241F932F933F93D8
:1015E0004F935F936F937F938F939F93AF93BF932B
:1015F000CF93DF93EF93FF93409186005091870044
:1016000020914405309145058091810021153105D7
:1016100041F08F7B80938100109245051092440524
:1016200011C080648093810060914905615081E020
:1016300090E002C0880F991F6A95E2F790934505E4
:101640008093440510914805111126C0232B09F001
:101650007FC08091400590914105840F951F909324
:101660008B0080938A0084E086BB80916F00846049
:1016700080936F0080914A0590914B05480F591F48
:1016800096958795480F591F5093430540934205FF
:1016900081E0809348055CC08091420590914305AC
:1016A000E0914405F091450560914A0570914B0524
:1016B000A0914905B0E02091460530914705481BAF
:1016C000590B57FD3BC0369527952E2B3F2B860F88
:1016D000971F1F5F461B570BC12FD0E0AC17BD07EC
:1016E00084F7309347052093460580916F008B7FE8
:1016F00080936F0020913F052F5F203508F020E098
:1017000080913E05281771F0E22FF0E080914605A8
:1017100090914705EE0FFF1FE256FB4F91838083A8
:1017200020933F05809181008F7B809381001092F0
:10173000450510924405109248050AC030934705AC
:1017400020934605909343058093420510934805E6
:10175000FF91EF91DF91CF91BF91AF919F918F91C9
:101760007F916F915F914F913F912F911F910F90BA
:101770000FBE0F901F9018951F920F920FB60F92E9
:1017800011242F933F934F935F936F937F938F9386
:101790009F93EF93FF9380916F008B7F80936F00F7
:1017A000809181008F7B80938100E091480540917A
:1017B000490550E0CA01019721E030E002C0220F44
:1017C000331F8A95E2F780914405909145052827BB
:1017D000392780914605909147056E2F70E0461796
:1017E000570734F096958795EF5F822B932BF5CFB3
:1017F000909347058093460520913F052F5F203544
:1018000008F020E030913E05231751F0E22FF0E080
:10181000EE0FFF1FE256FB4F9183808320933F051D
:1018200010924805809181008F7B809381001092F7
:10183000450510924405FF91EF919F918F917F9103
:101840006F915F914F913F912F910F900FBE0F902D
:101850001F90189580913E0580933F050895CF9382
:10186000DF93CFE6D0E088818B7F888388818F7D6E
:1018700088830E942A0C0E94E10A88818D7F8883D8
:10188000DF91CF910895FC01118210820895FC012F
:101890001182108208958F929F92AF92BF92CF9241
:1018A000DF92EF92FF920F931F93CF93DF93FC0190
:1018B00080819181A0E0B0E070E0AB010A2E02C00F
:1018C000559547950A94E2F76A0111E0C122DD249B
:1018D0007C0121E0E222FF24EC01D695C7955E0150
:1018E00011E0A122BB249C0124E0329F212D33274B
:1018F0001124490111E081229924842795278C0124
:1019000001701127AC014C275D274170552728270E
:10191000392721703327C8019927869597958827FD
:10192000842B952BCE7FDF758C2B9D2BE901DC2F33
:10193000CC27D295DD0FD07E8C2B9D2B1196A83015
:10194000B10509F0BACFD186C08691838083F38236
:10195000E282B582A482978286821787068755879E
:10196000448733872287DF91CF911F910F91FF909A
:10197000EF90DF90CF90BF90AF909F908F900895A1
:10198000FC0181E020813181232B09F080E0089562
:10199000FC0181810895FC01808108951F920F92BE
:1019A0000FB60F9211242F933F938F939F93AF9372
:1019B000BF9380914D0590914E05A0914F05B09138
:1019C000500530914C0523E0230F2D3720F401966C
:1019D000A11DB11D05C026E8230F0296A11DB11D52
:1019E00020934C0580934D0590934E05A0934F0591
:1019F000B09350058091510590915205A0915305E7
:101A0000B09154050196A11DB11D8093510590938D
:101A10005205A0935305B0935405BF91AF919F9188
:101A20008F913F912F910F900FBE0F901F9018959F
:101A30002FB7F89460914D0570914E0580914F0538
:101A4000909150052FBF08953FB7F89480915105AC
:101A500090915205A0915305B091540526B5A89BCD
:101A600005C02F3F19F00196A11DB11D3FBF66278C
:101A7000782F892F9A2F620F711D811D911D42E0D1
:101A8000660F771F881F991F4A95D1F708958F9287
:101A90009F92AF92BF92CF92DF92EF92FF926B0133
:101AA0007C010E94240D4B015C01C114D104E104AE
:101AB000F104F1F00E949F100E94240D6819790929
:101AC0008A099B09683E73408105910570F321E006
:101AD000C21AD108E108F10888EE880E83E0981E4A
:101AE000A11CB11CC114D104E104F10429F7DDCF1C
:101AF000FF90EF90DF90CF90BF90AF909F908F902E
:101B00000895789484B5826084BD84B5816084BD75
:101B100085B5826085BD85B5816085BDEEE6F0E066
:101B2000808181608083E1E8F0E0108280818260C2
:101B30008083808181608083E0E8F0E08081816043
:101B40008083E1EBF0E0808184608083E0EBF0E073
:101B5000808181608083EAE7F0E080818460808317
:101B600080818260808380818160808380818068C1
:101B700080831092C1000895833081F028F4813071
:101B800099F08230A1F008958730A9F08830B9F03B
:101B90008430D1F4809180008F7D03C080918000DB
:101BA0008F7780938000089584B58F7702C084B5C5
:101BB0008F7D84BD08958091B0008F7703C08091A0
:101BC000B0008F7D8093B0000895CF93DF9390E0B5
:101BD000FC01E458FF4F2491FC01E057FF4F849132
:101BE000882349F190E0880F991FFC01E854FF4FCA
:101BF000A591B49182559F4FFC01C591D4919FB797
:101C0000611108C0F8948C91209582238C9388816F
:101C100082230AC0623051F4F8948C91322F3095AF
:101C200083238C938881822B888304C0F8948C91C1
:101C3000822B8C939FBFDF91CF9108950F931F93B9
:101C4000CF93DF931F92CDB7DEB7282F30E0F90195
:101C5000E859FF4F8491F901E458FF4F1491F901BD
:101C6000E057FF4F04910023C9F0882321F06983D6
:101C70000E94BC0D6981E02FF0E0EE0FFF1FE255DE
:101C8000FF4FA591B4919FB7F8948C91611103C057
:101C90001095812301C0812B8C939FBF0F90DF9102
:101CA000CF911F910F910895CF93DF93282F30E0AC
:101CB000F901E859FF4F8491F901E458FF4FD4919D
:101CC000F901E057FF4FC491CC2391F081110E949C
:101CD000BC0DEC2FF0E0EE0FFF1FEC55FF4FA59170
:101CE000B4912C912D2381E090E021F480E002C09A
:101CF00080E090E0DF91CF910895FC01818D228DED
:101D000090E0805C9F4F821B91098F739927089503
:101D1000FC01918D828D981731F0828DE80FF11DB5
:101D2000858D90E008958FEF9FEF0895FC01918DD0
:101D3000828D981761F0828DDF01A80FB11D5D962D
:101D40008C91928D9F5F9F73928F90E008958FEF9B
:101D50009FEF08958AE190E1892B49F080E090E0BF
:101D6000892B29F00E941A1081110C94000008950B
:101D7000FC01848DDF01A80FB11DA35ABF4F2C9128
:101D8000848D90E001968F739927848FA689B789F7
:101D90002C93A089B1898C9180648C93938D848DD0
:101DA000981306C00288F389E02D80818F7D80839F
:101DB0000895CF93DF93EC01888D8823C9F0EA89D9
:101DC000FB89808185FD05C0A889B9898C9186FD34
:101DD0000FC00FB607FCF5CF808185FFF2CFA88931
:101DE000B9898C9185FFEDCFCE010E94B80EE7CF67
:101DF000DF91CF910895CF92DF92FF920F931F93BF
:101E0000CF93DF931F92CDB7DEB76C0181E0D6018F
:101E100058968C9358975B969C915B975C968C91A7
:101E20005C97981307C05096ED91FC915197808173
:101E300085FD2EC0F601038D10E00F5F1F4F0F735D
:101E40001127F02EF601848DF81211C00FB607FC91
:101E5000F9CFD6015096ED91FC915197808185FF85
:101E6000F1CFC60169830E94B80E6981EBCF838DE3
:101E7000E80FF11DE35AFF4F6083D6015B960C9388
:101E80005B975296ED91FC915397808180620CC0D4
:101E9000D6015696ED91FC91579760835096ED913F
:101EA000FC91519780818064808381E090E00F9065
:101EB000DF91CF911F910F91FF90DF90CF90089508
:101EC000BF92CF92DF92EF92FF92CF93DF93EC011C
:101ED0006A017B01B22EE889F98982E0808341158D
:101EE00081EE580761057105A1F060E079E08DE3AE
:101EF00090E0A70196010E94A010215031094109EC
:101F000051095695479537952795211580E1380752
:101F100098F0E889F989108260E874E88EE190E031
:101F2000A70196010E94A0102150310941095109D1
:101F30005695479537952795EC85FD853083EE8539
:101F4000FF852083188EEC89FD89B082EA89FB89A0
:101F5000808180618083EA89FB89808188608083B9
:101F6000EA89FB89808180688083EA89FB89808196
:101F70008F7D8083DF91CF91FF90EF90DF90CF90A6
:101F8000BF9008951F920F920FB60F9211242F93B6
:101F90008F939F93EF93FF93E0916505F091660512
:101FA0008081E0916B05F0916C0582FD12C09081FB
:101FB00080916E058F5F8F7320916F05821751F0AE
:101FC000E0916E05F0E0EB5AFA4F958F80936E0525
:101FD00001C08081FF91EF919F918F912F910F9080
:101FE0000FBE0F901F9018951F920F920FB60F9271
:101FF00011242F933F934F935F936F937F938F930E
:102000009F93AF93BF93EF93FF9385E595E00E9475
:10201000B80EFF91EF91BF91AF919F918F917F91FA
:102020006F915F914F913F912F910F900FBE0F9045
:102030001F90189585E595E00E947D0E21E0892B83
:1020400009F420E0822F0895109258051092570548
:1020500088EE93E0A0E0B0E08093590590935A0594
:10206000A0935B05B0935C058AE291E090935605DE
:102070008093550585EC90E090936205809361050F
:1020800084EC90E0909364058093630580EC90E08D
:10209000909366058093650581EC90E090936805C8
:1020A0008093670582EC90E090936A0580936905C0
:1020B00086EC90E090936C0580936B0510926E0512
:1020C00010926F0510927005109271050895CF92CD
:1020D000DF92EF92FF920F931F93CF93DF937C01D8
:1020E0006A01EB0100E010E00C151D0571F069912B
:1020F000D701ED91FC910190F081E02DC701099588
:10210000892B19F00F5F1F4FEFCFC801DF91CF91DF
:102110001F910F91FF90EF90DF90CF900895089559
:102120000E94810D0E948F100E94AC01CAEADEE07D
:102130000E94A7082097E1F30E94AA0EF9CF089504
:10214000A1E21A2EAA1BBB1BFD010DC0AA1FBB1FBB
:10215000EE1FFF1FA217B307E407F50720F0A21B2D
:10216000B30BE40BF50B661F771F881F991F1A949A
:1021700069F760957095809590959B01AC01BD01C4
:10218000CF0108950E94D310A59F900DB49F900D8C
:10219000A49F800D911D11240895EE0FFF1F05903F
:1021A000F491E02D0994A29FB001B39FC001A39FB9
:1021B000700D811D1124911DB29F700D811D112480
:1021C000911D0895F999FECF92BD81BDF89A992786
:1021D00080B50895262FF999FECF1FBA92BD81BD13
:1021E00020BD0FB6F894FA9AF99A0FBE0196089599
:1021F00010E0C6ECD0E004C0FE010E94CF10229691
:0A220000C83CD107C9F7F894FFCFDE
:10220A004E4C4330303030303030005230314C3068
:10221A00310003020504000000002D0A6710880936
:10222A005E097709E60A00000000FB0E67107D0EC2
:06223A00960E880ED90E7D
:00000001FF
